{
  "_format": "hh-sol-artifact-1",
  "contractName": "KGFTokens",
  "sourceName": "contracts/KGFTokens.sol",
  "abi": [
    {
      "inputs": [],
      "stateMutability": "nonpayable",
      "type": "constructor"
    },
    {
      "anonymous": false,
      "inputs": [
        {
          "indexed": true,
          "internalType": "address",
          "name": "owner",
          "type": "address"
        },
        {
          "indexed": true,
          "internalType": "address",
          "name": "approved",
          "type": "address"
        },
        {
          "indexed": true,
          "internalType": "uint256",
          "name": "tokenId",
          "type": "uint256"
        }
      ],
      "name": "Approval",
      "type": "event"
    },
    {
      "anonymous": false,
      "inputs": [
        {
          "indexed": true,
          "internalType": "address",
          "name": "owner",
          "type": "address"
        },
        {
          "indexed": true,
          "internalType": "address",
          "name": "operator",
          "type": "address"
        },
        {
          "indexed": false,
          "internalType": "bool",
          "name": "approved",
          "type": "bool"
        }
      ],
      "name": "ApprovalForAll",
      "type": "event"
    },
    {
      "anonymous": false,
      "inputs": [
        {
          "indexed": true,
          "internalType": "address",
          "name": "from",
          "type": "address"
        },
        {
          "indexed": true,
          "internalType": "address",
          "name": "to",
          "type": "address"
        },
        {
          "indexed": true,
          "internalType": "uint256",
          "name": "tokenId",
          "type": "uint256"
        }
      ],
      "name": "Transfer",
      "type": "event"
    },
    {
      "inputs": [
        {
          "internalType": "address",
          "name": "member",
          "type": "address"
        }
      ],
      "name": "addToWhiteList",
      "outputs": [
        {
          "internalType": "bool",
          "name": "",
          "type": "bool"
        }
      ],
      "stateMutability": "nonpayable",
      "type": "function"
    },
    {
      "inputs": [
        {
          "internalType": "address",
          "name": "to",
          "type": "address"
        },
        {
          "internalType": "uint256",
          "name": "tokenId",
          "type": "uint256"
        }
      ],
      "name": "approve",
      "outputs": [],
      "stateMutability": "nonpayable",
      "type": "function"
    },
    {
      "inputs": [
        {
          "internalType": "address",
          "name": "owner",
          "type": "address"
        }
      ],
      "name": "balanceOf",
      "outputs": [
        {
          "internalType": "uint256",
          "name": "",
          "type": "uint256"
        }
      ],
      "stateMutability": "view",
      "type": "function"
    },
    {
      "inputs": [
        {
          "internalType": "uint256",
          "name": "tokenId",
          "type": "uint256"
        }
      ],
      "name": "getApproved",
      "outputs": [
        {
          "internalType": "address",
          "name": "",
          "type": "address"
        }
      ],
      "stateMutability": "view",
      "type": "function"
    },
    {
      "inputs": [
        {
          "internalType": "address",
          "name": "owner",
          "type": "address"
        },
        {
          "internalType": "address",
          "name": "operator",
          "type": "address"
        }
      ],
      "name": "isApprovedForAll",
      "outputs": [
        {
          "internalType": "bool",
          "name": "",
          "type": "bool"
        }
      ],
      "stateMutability": "view",
      "type": "function"
    },
    {
      "inputs": [
        {
          "internalType": "string",
          "name": "tokenURI",
          "type": "string"
        }
      ],
      "name": "mint",
      "outputs": [
        {
          "internalType": "uint256",
          "name": "",
          "type": "uint256"
        }
      ],
      "stateMutability": "nonpayable",
      "type": "function"
    },
    {
      "inputs": [],
      "name": "name",
      "outputs": [
        {
          "internalType": "string",
          "name": "",
          "type": "string"
        }
      ],
      "stateMutability": "view",
      "type": "function"
    },
    {
      "inputs": [],
      "name": "owner",
      "outputs": [
        {
          "internalType": "address",
          "name": "",
          "type": "address"
        }
      ],
      "stateMutability": "view",
      "type": "function"
    },
    {
      "inputs": [
        {
          "internalType": "uint256",
          "name": "tokenId",
          "type": "uint256"
        }
      ],
      "name": "ownerOf",
      "outputs": [
        {
          "internalType": "address",
          "name": "",
          "type": "address"
        }
      ],
      "stateMutability": "view",
      "type": "function"
    },
    {
      "inputs": [
        {
          "internalType": "address",
          "name": "from",
          "type": "address"
        },
        {
          "internalType": "address",
          "name": "to",
          "type": "address"
        },
        {
          "internalType": "uint256",
          "name": "tokenId",
          "type": "uint256"
        }
      ],
      "name": "safeTransferFrom",
      "outputs": [],
      "stateMutability": "nonpayable",
      "type": "function"
    },
    {
      "inputs": [
        {
          "internalType": "address",
          "name": "from",
          "type": "address"
        },
        {
          "internalType": "address",
          "name": "to",
          "type": "address"
        },
        {
          "internalType": "uint256",
          "name": "tokenId",
          "type": "uint256"
        },
        {
          "internalType": "bytes",
          "name": "_data",
          "type": "bytes"
        }
      ],
      "name": "safeTransferFrom",
      "outputs": [],
      "stateMutability": "nonpayable",
      "type": "function"
    },
    {
      "inputs": [
        {
          "internalType": "address",
          "name": "operator",
          "type": "address"
        },
        {
          "internalType": "bool",
          "name": "approved",
          "type": "bool"
        }
      ],
      "name": "setApprovalForAll",
      "outputs": [],
      "stateMutability": "nonpayable",
      "type": "function"
    },
    {
      "inputs": [
        {
          "internalType": "bytes4",
          "name": "interfaceId",
          "type": "bytes4"
        }
      ],
      "name": "supportsInterface",
      "outputs": [
        {
          "internalType": "bool",
          "name": "",
          "type": "bool"
        }
      ],
      "stateMutability": "view",
      "type": "function"
    },
    {
      "inputs": [],
      "name": "symbol",
      "outputs": [
        {
          "internalType": "string",
          "name": "",
          "type": "string"
        }
      ],
      "stateMutability": "view",
      "type": "function"
    },
    {
      "inputs": [
        {
          "internalType": "uint256",
          "name": "tokenId",
          "type": "uint256"
        }
      ],
      "name": "tokenURI",
      "outputs": [
        {
          "internalType": "string",
          "name": "",
          "type": "string"
        }
      ],
      "stateMutability": "view",
      "type": "function"
    },
    {
      "inputs": [],
      "name": "totalSupply",
      "outputs": [
        {
          "internalType": "uint256",
          "name": "",
          "type": "uint256"
        }
      ],
      "stateMutability": "view",
      "type": "function"
    },
    {
      "inputs": [
        {
          "internalType": "address",
          "name": "from",
          "type": "address"
        },
        {
          "internalType": "address",
          "name": "to",
          "type": "address"
        },
        {
          "internalType": "uint256",
          "name": "tokenId",
          "type": "uint256"
        }
      ],
      "name": "transferFrom",
      "outputs": [],
      "stateMutability": "nonpayable",
      "type": "function"
    },
    {
      "inputs": [
        {
          "internalType": "address",
          "name": "",
          "type": "address"
        }
      ],
      "name": "whiteList",
      "outputs": [
        {
          "internalType": "bool",
          "name": "",
          "type": "bool"
        }
      ],
      "stateMutability": "view",
      "type": "function"
    }
  ],
  "bytecode": "0x60806040523480156200001157600080fd5b506040518060400160405280600981526020017f4b4746546f6b656e7300000000000000000000000000000000000000000000008152506040518060400160405280600381526020017f4b474600000000000000000000000000000000000000000000000000000000008152508160009080519060200190620000969291906200015a565b508060019080519060200190620000af9291906200015a565b50505033600860006101000a81548173ffffffffffffffffffffffffffffffffffffffff021916908373ffffffffffffffffffffffffffffffffffffffff1602179055506001600960003373ffffffffffffffffffffffffffffffffffffffff1673ffffffffffffffffffffffffffffffffffffffff16815260200190815260200160002060006101000a81548160ff021916908315150217905550610bb8600a819055506200026f565b82805462000168906200020a565b90600052602060002090601f0160209004810192826200018c5760008555620001d8565b82601f10620001a757805160ff1916838001178555620001d8565b82800160010185558215620001d8579182015b82811115620001d7578251825591602001919060010190620001ba565b5b509050620001e79190620001eb565b5090565b5b8082111562000206576000816000905550600101620001ec565b5090565b600060028204905060018216806200022357607f821691505b602082108114156200023a576200023962000240565b5b50919050565b7f4e487b7100000000000000000000000000000000000000000000000000000000600052602260045260246000fd5b612ef1806200027f6000396000f3fe608060405234801561001057600080fd5b50600436106101165760003560e01c80636352211e116100a2578063a22cb46511610071578063a22cb46514610307578063b88d4fde14610323578063c87b56dd1461033f578063d85d3d271461036f578063e985e9c51461039f57610116565b80636352211e1461026b57806370a082311461029b5780638da5cb5b146102cb57806395d89b41146102e957610116565b806318160ddd116100e957806318160ddd146101b557806323b872dd146101d3578063372c12b1146101ef57806342842e0e1461021f57806347ee03941461023b57610116565b806301ffc9a71461011b57806306fdde031461014b578063081812fc14610169578063095ea7b314610199575b600080fd5b61013560048036038101906101309190611e85565b6103cf565b6040516101429190612312565b60405180910390f35b6101536104b1565b604051610160919061232d565b60405180910390f35b610183600480360381019061017e9190611f18565b610543565b60405161019091906122ab565b60405180910390f35b6101b360048036038101906101ae9190611e49565b6105c8565b005b6101bd6106e0565b6040516101ca919061258f565b60405180910390f35b6101ed60048036038101906101e89190611d43565b6106e6565b005b61020960048036038101906102049190611cde565b610746565b6040516102169190612312565b60405180910390f35b61023960048036038101906102349190611d43565b610766565b005b61025560048036038101906102509190611cde565b610786565b6040516102629190612312565b60405180910390f35b61028560048036038101906102809190611f18565b610834565b60405161029291906122ab565b60405180910390f35b6102b560048036038101906102b09190611cde565b6108e6565b6040516102c2919061258f565b60405180910390f35b6102d361099e565b6040516102e091906122ab565b60405180910390f35b6102f16109c4565b6040516102fe919061232d565b60405180910390f35b610321600480360381019061031c9190611e0d565b610a56565b005b61033d60048036038101906103389190611d92565b610a6c565b005b61035960048036038101906103549190611f18565b610ace565b604051610366919061232d565b60405180910390f35b61038960048036038101906103849190611ed7565b610c20565b604051610396919061258f565b60405180910390f35b6103b960048036038101906103b49190611d07565b610d28565b6040516103c69190612312565b60405180910390f35b60007f80ac58cd000000000000000000000000000000000000000000000000000000007bffffffffffffffffffffffffffffffffffffffffffffffffffffffff1916827bffffffffffffffffffffffffffffffffffffffffffffffffffffffff1916148061049a57507f5b5e139f000000000000000000000000000000000000000000000000000000007bffffffffffffffffffffffffffffffffffffffffffffffffffffffff1916827bffffffffffffffffffffffffffffffffffffffffffffffffffffffff1916145b806104aa57506104a982610dbc565b5b9050919050565b6060600080546104c0906127e5565b80601f01602080910402602001604051908101604052809291908181526020018280546104ec906127e5565b80156105395780601f1061050e57610100808354040283529160200191610539565b820191906000526020600020905b81548152906001019060200180831161051c57829003601f168201915b5050505050905090565b600061054e82610e26565b61058d576040517f08c379a00000000000000000000000000000000000000000000000000000000081526004016105849061250f565b60405180910390fd5b6004600083815260200190815260200160002060009054906101000a900473ffffffffffffffffffffffffffffffffffffffff169050919050565b60006105d382610834565b90508073ffffffffffffffffffffffffffffffffffffffff168373ffffffffffffffffffffffffffffffffffffffff161415610644576040517f08c379a000000000000000000000000000000000000000000000000000000000815260040161063b9061254f565b60405180910390fd5b8073ffffffffffffffffffffffffffffffffffffffff16610663610e92565b73ffffffffffffffffffffffffffffffffffffffff16148061069257506106918161068c610e92565b610d28565b5b6106d1576040517f08c379a00000000000000000000000000000000000000000000000000000000081526004016106c89061240f565b60405180910390fd5b6106db8383610e9a565b505050565b600a5481565b6106f76106f1610e92565b82610f53565b610736576040517f08c379a000000000000000000000000000000000000000000000000000000000815260040161072d9061256f565b60405180910390fd5b610741838383611031565b505050565b60096020528060005260406000206000915054906101000a900460ff1681565b61078183838360405180602001604052806000815250610a6c565b505050565b60006001600960008473ffffffffffffffffffffffffffffffffffffffff1673ffffffffffffffffffffffffffffffffffffffff16815260200190815260200160002060006101000a81548160ff021916908315150217905550600960008373ffffffffffffffffffffffffffffffffffffffff1673ffffffffffffffffffffffffffffffffffffffff16815260200190815260200160002060009054906101000a900460ff169050919050565b6000806002600084815260200190815260200160002060009054906101000a900473ffffffffffffffffffffffffffffffffffffffff169050600073ffffffffffffffffffffffffffffffffffffffff168173ffffffffffffffffffffffffffffffffffffffff1614156108dd576040517f08c379a00000000000000000000000000000000000000000000000000000000081526004016108d49061244f565b60405180910390fd5b80915050919050565b60008073ffffffffffffffffffffffffffffffffffffffff168273ffffffffffffffffffffffffffffffffffffffff161415610957576040517f08c379a000000000000000000000000000000000000000000000000000000000815260040161094e9061242f565b60405180910390fd5b600360008373ffffffffffffffffffffffffffffffffffffffff1673ffffffffffffffffffffffffffffffffffffffff168152602001908152602001600020549050919050565b600860009054906101000a900473ffffffffffffffffffffffffffffffffffffffff1681565b6060600180546109d3906127e5565b80601f01602080910402602001604051908101604052809291908181526020018280546109ff906127e5565b8015610a4c5780601f10610a2157610100808354040283529160200191610a4c565b820191906000526020600020905b815481529060010190602001808311610a2f57829003601f168201915b5050505050905090565b610a68610a61610e92565b8383611298565b5050565b610a7d610a77610e92565b83610f53565b610abc576040517f08c379a0000000000000000000000000000000000000000000000000000000008152600401610ab39061256f565b60405180910390fd5b610ac884848484611405565b50505050565b6060610ad982610e26565b610b18576040517f08c379a0000000000000000000000000000000000000000000000000000000008152600401610b0f906124ef565b60405180910390fd5b6000600660008481526020019081526020016000208054610b38906127e5565b80601f0160208091040260200160405190810160405280929190818152602001828054610b64906127e5565b8015610bb15780601f10610b8657610100808354040283529160200191610bb1565b820191906000526020600020905b815481529060010190602001808311610b9457829003601f168201915b505050505090506000610bc2611461565b9050600081511415610bd8578192505050610c1b565b600082511115610c0d578082604051602001610bf5929190612287565b60405160208183030381529060405292505050610c1b565b610c1684611478565b925050505b919050565b6000600960003373ffffffffffffffffffffffffffffffffffffffff1673ffffffffffffffffffffffffffffffffffffffff16815260200190815260200160002060009054906101000a900460ff16610cae576040517f08c379a0000000000000000000000000000000000000000000000000000000008152600401610ca59061248f565b60405180910390fd5b610cb8600761151f565b6000610cc46007611535565b9050600a54811115610d0b576040517f08c379a0000000000000000000000000000000000000000000000000000000008152600401610d02906124af565b60405180910390fd5b610d153382611543565b610d1f818461171d565b80915050919050565b6000600560008473ffffffffffffffffffffffffffffffffffffffff1673ffffffffffffffffffffffffffffffffffffffff16815260200190815260200160002060008373ffffffffffffffffffffffffffffffffffffffff1673ffffffffffffffffffffffffffffffffffffffff16815260200190815260200160002060009054906101000a900460ff16905092915050565b60007f01ffc9a7000000000000000000000000000000000000000000000000000000007bffffffffffffffffffffffffffffffffffffffffffffffffffffffff1916827bffffffffffffffffffffffffffffffffffffffffffffffffffffffff1916149050919050565b60008073ffffffffffffffffffffffffffffffffffffffff166002600084815260200190815260200160002060009054906101000a900473ffffffffffffffffffffffffffffffffffffffff1673ffffffffffffffffffffffffffffffffffffffff1614159050919050565b600033905090565b816004600083815260200190815260200160002060006101000a81548173ffffffffffffffffffffffffffffffffffffffff021916908373ffffffffffffffffffffffffffffffffffffffff160217905550808273ffffffffffffffffffffffffffffffffffffffff16610f0d83610834565b73ffffffffffffffffffffffffffffffffffffffff167f8c5be1e5ebec7d5bd14f71427d1e84f3dd0314c0f7b2291e5b200ac8c7c3b92560405160405180910390a45050565b6000610f5e82610e26565b610f9d576040517f08c379a0000000000000000000000000000000000000000000000000000000008152600401610f94906123ef565b60405180910390fd5b6000610fa883610834565b90508073ffffffffffffffffffffffffffffffffffffffff168473ffffffffffffffffffffffffffffffffffffffff16148061101757508373ffffffffffffffffffffffffffffffffffffffff16610fff84610543565b73ffffffffffffffffffffffffffffffffffffffff16145b8061102857506110278185610d28565b5b91505092915050565b8273ffffffffffffffffffffffffffffffffffffffff1661105182610834565b73ffffffffffffffffffffffffffffffffffffffff16146110a7576040517f08c379a000000000000000000000000000000000000000000000000000000000815260040161109e9061236f565b60405180910390fd5b600073ffffffffffffffffffffffffffffffffffffffff168273ffffffffffffffffffffffffffffffffffffffff161415611117576040517f08c379a000000000000000000000000000000000000000000000000000000000815260040161110e906123af565b60405180910390fd5b611122838383611791565b61112d600082610e9a565b6001600360008573ffffffffffffffffffffffffffffffffffffffff1673ffffffffffffffffffffffffffffffffffffffff168152602001908152602001600020600082825461117d91906126fb565b925050819055506001600360008473ffffffffffffffffffffffffffffffffffffffff1673ffffffffffffffffffffffffffffffffffffffff16815260200190815260200160002060008282546111d49190612674565b92505081905550816002600083815260200190815260200160002060006101000a81548173ffffffffffffffffffffffffffffffffffffffff021916908373ffffffffffffffffffffffffffffffffffffffff160217905550808273ffffffffffffffffffffffffffffffffffffffff168473ffffffffffffffffffffffffffffffffffffffff167fddf252ad1be2c89b69c2b068fc378daa952ba7f163c4a11628f55a4df523b3ef60405160405180910390a4611293838383611796565b505050565b8173ffffffffffffffffffffffffffffffffffffffff168373ffffffffffffffffffffffffffffffffffffffff161415611307576040517f08c379a00000000000000000000000000000000000000000000000000000000081526004016112fe906123cf565b60405180910390fd5b80600560008573ffffffffffffffffffffffffffffffffffffffff1673ffffffffffffffffffffffffffffffffffffffff16815260200190815260200160002060008473ffffffffffffffffffffffffffffffffffffffff1673ffffffffffffffffffffffffffffffffffffffff16815260200190815260200160002060006101000a81548160ff0219169083151502179055508173ffffffffffffffffffffffffffffffffffffffff168373ffffffffffffffffffffffffffffffffffffffff167f17307eab39ab6107e8899845ad3d59bd9653f200f220920489ca2b5937696c31836040516113f89190612312565b60405180910390a3505050565b611410848484611031565b61141c8484848461179b565b61145b576040517f08c379a00000000000000000000000000000000000000000000000000000000081526004016114529061234f565b60405180910390fd5b50505050565b606060405180602001604052806000815250905090565b606061148382610e26565b6114c2576040517f08c379a00000000000000000000000000000000000000000000000000000000081526004016114b99061252f565b60405180910390fd5b60006114cc611461565b905060008151116114ec5760405180602001604052806000815250611517565b806114f684611932565b604051602001611507929190612287565b6040516020818303038152906040525b915050919050565b6001816000016000828254019250508190555050565b600081600001549050919050565b600073ffffffffffffffffffffffffffffffffffffffff168273ffffffffffffffffffffffffffffffffffffffff1614156115b3576040517f08c379a00000000000000000000000000000000000000000000000000000000081526004016115aa906124cf565b60405180910390fd5b6115bc81610e26565b156115fc576040517f08c379a00000000000000000000000000000000000000000000000000000000081526004016115f39061238f565b60405180910390fd5b61160860008383611791565b6001600360008473ffffffffffffffffffffffffffffffffffffffff1673ffffffffffffffffffffffffffffffffffffffff16815260200190815260200160002060008282546116589190612674565b92505081905550816002600083815260200190815260200160002060006101000a81548173ffffffffffffffffffffffffffffffffffffffff021916908373ffffffffffffffffffffffffffffffffffffffff160217905550808273ffffffffffffffffffffffffffffffffffffffff16600073ffffffffffffffffffffffffffffffffffffffff167fddf252ad1be2c89b69c2b068fc378daa952ba7f163c4a11628f55a4df523b3ef60405160405180910390a461171960008383611796565b5050565b61172682610e26565b611765576040517f08c379a000000000000000000000000000000000000000000000000000000000815260040161175c9061246f565b60405180910390fd5b8060066000848152602001908152602001600020908051906020019061178c929190611b02565b505050565b505050565b505050565b60006117bc8473ffffffffffffffffffffffffffffffffffffffff16611adf565b15611925578373ffffffffffffffffffffffffffffffffffffffff1663150b7a026117e5610e92565b8786866040518563ffffffff1660e01b815260040161180794939291906122c6565b602060405180830381600087803b15801561182157600080fd5b505af192505050801561185257506040513d601f19601f8201168201806040525081019061184f9190611eae565b60015b6118d5573d8060008114611882576040519150601f19603f3d011682016040523d82523d6000602084013e611887565b606091505b506000815114156118cd576040517f08c379a00000000000000000000000000000000000000000000000000000000081526004016118c49061234f565b60405180910390fd5b805181602001fd5b63150b7a0260e01b7bffffffffffffffffffffffffffffffffffffffffffffffffffffffff1916817bffffffffffffffffffffffffffffffffffffffffffffffffffffffff19161491505061192a565b600190505b949350505050565b6060600082141561197a576040518060400160405280600181526020017f30000000000000000000000000000000000000000000000000000000000000008152509050611ada565b600082905060005b600082146119ac57808061199590612848565b915050600a826119a591906126ca565b9150611982565b60008167ffffffffffffffff8111156119ee577f4e487b7100000000000000000000000000000000000000000000000000000000600052604160045260246000fd5b6040519080825280601f01601f191660200182016040528015611a205781602001600182028036833780820191505090505b5090505b60008514611ad357600182611a3991906126fb565b9150600a85611a489190612891565b6030611a549190612674565b60f81b818381518110611a90577f4e487b7100000000000000000000000000000000000000000000000000000000600052603260045260246000fd5b60200101907effffffffffffffffffffffffffffffffffffffffffffffffffffffffffffff1916908160001a905350600a85611acc91906126ca565b9450611a24565b8093505050505b919050565b6000808273ffffffffffffffffffffffffffffffffffffffff163b119050919050565b828054611b0e906127e5565b90600052602060002090601f016020900481019282611b305760008555611b77565b82601f10611b4957805160ff1916838001178555611b77565b82800160010185558215611b77579182015b82811115611b76578251825591602001919060010190611b5b565b5b509050611b849190611b88565b5090565b5b80821115611ba1576000816000905550600101611b89565b5090565b6000611bb8611bb3846125cf565b6125aa565b905082815260208101848484011115611bd057600080fd5b611bdb8482856127a3565b509392505050565b6000611bf6611bf184612600565b6125aa565b905082815260208101848484011115611c0e57600080fd5b611c198482856127a3565b509392505050565b600081359050611c3081612e5f565b92915050565b600081359050611c4581612e76565b92915050565b600081359050611c5a81612e8d565b92915050565b600081519050611c6f81612e8d565b92915050565b600082601f830112611c8657600080fd5b8135611c96848260208601611ba5565b91505092915050565b600082601f830112611cb057600080fd5b8135611cc0848260208601611be3565b91505092915050565b600081359050611cd881612ea4565b92915050565b600060208284031215611cf057600080fd5b6000611cfe84828501611c21565b91505092915050565b60008060408385031215611d1a57600080fd5b6000611d2885828601611c21565b9250506020611d3985828601611c21565b9150509250929050565b600080600060608486031215611d5857600080fd5b6000611d6686828701611c21565b9350506020611d7786828701611c21565b9250506040611d8886828701611cc9565b9150509250925092565b60008060008060808587031215611da857600080fd5b6000611db687828801611c21565b9450506020611dc787828801611c21565b9350506040611dd887828801611cc9565b925050606085013567ffffffffffffffff811115611df557600080fd5b611e0187828801611c75565b91505092959194509250565b60008060408385031215611e2057600080fd5b6000611e2e85828601611c21565b9250506020611e3f85828601611c36565b9150509250929050565b60008060408385031215611e5c57600080fd5b6000611e6a85828601611c21565b9250506020611e7b85828601611cc9565b9150509250929050565b600060208284031215611e9757600080fd5b6000611ea584828501611c4b565b91505092915050565b600060208284031215611ec057600080fd5b6000611ece84828501611c60565b91505092915050565b600060208284031215611ee957600080fd5b600082013567ffffffffffffffff811115611f0357600080fd5b611f0f84828501611c9f565b91505092915050565b600060208284031215611f2a57600080fd5b6000611f3884828501611cc9565b91505092915050565b611f4a8161272f565b82525050565b611f5981612741565b82525050565b6000611f6a82612631565b611f748185612647565b9350611f848185602086016127b2565b611f8d8161297e565b840191505092915050565b6000611fa38261263c565b611fad8185612658565b9350611fbd8185602086016127b2565b611fc68161297e565b840191505092915050565b6000611fdc8261263c565b611fe68185612669565b9350611ff68185602086016127b2565b80840191505092915050565b600061200f603283612658565b915061201a8261298f565b604082019050919050565b6000612032602583612658565b915061203d826129de565b604082019050919050565b6000612055601c83612658565b915061206082612a2d565b602082019050919050565b6000612078602483612658565b915061208382612a56565b604082019050919050565b600061209b601983612658565b91506120a682612aa5565b602082019050919050565b60006120be602c83612658565b91506120c982612ace565b604082019050919050565b60006120e1603883612658565b91506120ec82612b1d565b604082019050919050565b6000612104602a83612658565b915061210f82612b6c565b604082019050919050565b6000612127602983612658565b915061213282612bbb565b604082019050919050565b600061214a602e83612658565b915061215582612c0a565b604082019050919050565b600061216d601483612658565b915061217882612c59565b602082019050919050565b6000612190601583612658565b915061219b82612c82565b602082019050919050565b60006121b3602083612658565b91506121be82612cab565b602082019050919050565b60006121d6603183612658565b91506121e182612cd4565b604082019050919050565b60006121f9602c83612658565b915061220482612d23565b604082019050919050565b600061221c602f83612658565b915061222782612d72565b604082019050919050565b600061223f602183612658565b915061224a82612dc1565b604082019050919050565b6000612262603183612658565b915061226d82612e10565b604082019050919050565b61228181612799565b82525050565b60006122938285611fd1565b915061229f8284611fd1565b91508190509392505050565b60006020820190506122c06000830184611f41565b92915050565b60006080820190506122db6000830187611f41565b6122e86020830186611f41565b6122f56040830185612278565b81810360608301526123078184611f5f565b905095945050505050565b60006020820190506123276000830184611f50565b92915050565b600060208201905081810360008301526123478184611f98565b905092915050565b6000602082019050818103600083015261236881612002565b9050919050565b6000602082019050818103600083015261238881612025565b9050919050565b600060208201905081810360008301526123a881612048565b9050919050565b600060208201905081810360008301526123c88161206b565b9050919050565b600060208201905081810360008301526123e88161208e565b9050919050565b60006020820190508181036000830152612408816120b1565b9050919050565b60006020820190508181036000830152612428816120d4565b9050919050565b60006020820190508181036000830152612448816120f7565b9050919050565b600060208201905081810360008301526124688161211a565b9050919050565b600060208201905081810360008301526124888161213d565b9050919050565b600060208201905081810360008301526124a881612160565b9050919050565b600060208201905081810360008301526124c881612183565b9050919050565b600060208201905081810360008301526124e8816121a6565b9050919050565b60006020820190508181036000830152612508816121c9565b9050919050565b60006020820190508181036000830152612528816121ec565b9050919050565b600060208201905081810360008301526125488161220f565b9050919050565b6000602082019050818103600083015261256881612232565b9050919050565b6000602082019050818103600083015261258881612255565b9050919050565b60006020820190506125a46000830184612278565b92915050565b60006125b46125c5565b90506125c08282612817565b919050565b6000604051905090565b600067ffffffffffffffff8211156125ea576125e961294f565b5b6125f38261297e565b9050602081019050919050565b600067ffffffffffffffff82111561261b5761261a61294f565b5b6126248261297e565b9050602081019050919050565b600081519050919050565b600081519050919050565b600082825260208201905092915050565b600082825260208201905092915050565b600081905092915050565b600061267f82612799565b915061268a83612799565b9250827fffffffffffffffffffffffffffffffffffffffffffffffffffffffffffffffff038211156126bf576126be6128c2565b5b828201905092915050565b60006126d582612799565b91506126e083612799565b9250826126f0576126ef6128f1565b5b828204905092915050565b600061270682612799565b915061271183612799565b925082821015612724576127236128c2565b5b828203905092915050565b600061273a82612779565b9050919050565b60008115159050919050565b60007fffffffff0000000000000000000000000000000000000000000000000000000082169050919050565b600073ffffffffffffffffffffffffffffffffffffffff82169050919050565b6000819050919050565b82818337600083830152505050565b60005b838110156127d05780820151818401526020810190506127b5565b838111156127df576000848401525b50505050565b600060028204905060018216806127fd57607f821691505b6020821081141561281157612810612920565b5b50919050565b6128208261297e565b810181811067ffffffffffffffff8211171561283f5761283e61294f565b5b80604052505050565b600061285382612799565b91507fffffffffffffffffffffffffffffffffffffffffffffffffffffffffffffffff821415612886576128856128c2565b5b600182019050919050565b600061289c82612799565b91506128a783612799565b9250826128b7576128b66128f1565b5b828206905092915050565b7f4e487b7100000000000000000000000000000000000000000000000000000000600052601160045260246000fd5b7f4e487b7100000000000000000000000000000000000000000000000000000000600052601260045260246000fd5b7f4e487b7100000000000000000000000000000000000000000000000000000000600052602260045260246000fd5b7f4e487b7100000000000000000000000000000000000000000000000000000000600052604160045260246000fd5b6000601f19601f8301169050919050565b7f4552433732313a207472616e7366657220746f206e6f6e20455243373231526560008201527f63656976657220696d706c656d656e7465720000000000000000000000000000602082015250565b7f4552433732313a207472616e736665722066726f6d20696e636f72726563742060008201527f6f776e6572000000000000000000000000000000000000000000000000000000602082015250565b7f4552433732313a20746f6b656e20616c7265616479206d696e74656400000000600082015250565b7f4552433732313a207472616e7366657220746f20746865207a65726f2061646460008201527f7265737300000000000000000000000000000000000000000000000000000000602082015250565b7f4552433732313a20617070726f766520746f2063616c6c657200000000000000600082015250565b7f4552433732313a206f70657261746f7220717565727920666f72206e6f6e657860008201527f697374656e7420746f6b656e0000000000000000000000000000000000000000602082015250565b7f4552433732313a20617070726f76652063616c6c6572206973206e6f74206f7760008201527f6e6572206e6f7220617070726f76656420666f7220616c6c0000000000000000602082015250565b7f4552433732313a2062616c616e636520717565727920666f7220746865207a6560008201527f726f206164647265737300000000000000000000000000000000000000000000602082015250565b7f4552433732313a206f776e657220717565727920666f72206e6f6e657869737460008201527f656e7420746f6b656e0000000000000000000000000000000000000000000000602082015250565b7f45524337323155524953746f726167653a2055524920736574206f66206e6f6e60008201527f6578697374656e7420746f6b656e000000000000000000000000000000000000602082015250565b7f6e6f742077686974656c697374206d656d656272000000000000000000000000600082015250565b7f657863656564656420746f74616c20537570706c790000000000000000000000600082015250565b7f4552433732313a206d696e7420746f20746865207a65726f2061646472657373600082015250565b7f45524337323155524953746f726167653a2055524920717565727920666f722060008201527f6e6f6e6578697374656e7420746f6b656e000000000000000000000000000000602082015250565b7f4552433732313a20617070726f76656420717565727920666f72206e6f6e657860008201527f697374656e7420746f6b656e0000000000000000000000000000000000000000602082015250565b7f4552433732314d657461646174613a2055524920717565727920666f72206e6f60008201527f6e6578697374656e7420746f6b656e0000000000000000000000000000000000602082015250565b7f4552433732313a20617070726f76616c20746f2063757272656e74206f776e6560008201527f7200000000000000000000000000000000000000000000000000000000000000602082015250565b7f4552433732313a207472616e736665722063616c6c6572206973206e6f74206f60008201527f776e6572206e6f7220617070726f766564000000000000000000000000000000602082015250565b612e688161272f565b8114612e7357600080fd5b50565b612e7f81612741565b8114612e8a57600080fd5b50565b612e968161274d565b8114612ea157600080fd5b50565b612ead81612799565b8114612eb857600080fd5b5056fea2646970667358221220648b095230010ec3197918483c8927853935358fadbe4dc4811aa100deb67aa464736f6c63430008040033",
  "linkReferences": {},
  "deployedLinkReferences": {}
}